S00F00005072656C6162342E737265638B
S11300000C9434000C9451000C9451000C94510045
S11300100C94B3000C9451000C9451000C945100B6
S11300200C9451000C9451000C9451000C94510008
S11300300C9451000C9451000C9451000C945100F8
S11300400C9451000C9451000C9451000C945100E8
S11300500C9451000C94EC000C9451000C9451003D
S11300600C9451000C94510011241FBECFEFD8E022
S1130070DEBFCDBF11E0A0E0B1E0E4E7F2E002C0F2
S113008005900D92A031B107D9F721E0A0E1B1E0CC
S113009001C01D92A531B207E1F70E9490000C94B3
S11300A038010C940000F8941092C10087B18E7F3F
S11300B087B988B1816088B987B18D7F87B988B1E4
S11300C0826088B98FEF8AB9909114019BB984B981
S11300D015B8E8E6F0E0808182608083ECE6F0E029
S11300E080818360808378940895ECE7F0E08081D8
S11300F08064808380818F77808380818062808325
S1130100808187608083EAE7F0E0108280818860E4
S11301108083808187608083808180688083089564
S11301200E9453000E947500EAE7F0E08081806439
S1130130808387EA91E60197F1F700C0000081E02F
S1130140809310018091100185B9809114018BB9BD
S113015090911401809113019813E6CF80911001BE
S1130160885F85B9E1CF1F920F920FB60F921124C9
S11301708F939F9330990FC08BE792E90197F1F722
S113018000C00000309907C0809114018F5F8093F4
S1130190140180911401319918C08BE792E90197F9
S11301A0F1F700C00000319910C081E08093100184
S11301B08091100185B980911401815080931401BC
S11301C080911401809114018BB99F918F910F90AC
S11301D00FBE0F901F9018951F920F920FB60F929B
S11301E011248F939F93EF93FF93809179008093D1
S11301F01301809113018F70809312018091130178
S113020082958F708093110187EA91E60197F1F747
S113021000C0000082E0809310018091100185B934
S1130220E0911201F0E0E050FF4F80818BB987EA42
S113023091E60197F1F700C0000084E0809310017B
S11302408091100185B9E0911101F0E0E050FF4F79
S113025080818BB9EAE7F0E0808180618083FF913F
S1130260EF919F918F910F900FBE0F901F90189553
S1070270F894FFCF2C
S1130274407924301912027800108883C6A1868E2E
S9030000FC
